{
  "_format": "hh-sol-artifact-1",
  "contractName": "LockFactory",
  "sourceName": "contracts/LockFactory.sol",
  "abi": [
    {
      "inputs": [],
      "stateMutability": "nonpayable",
      "type": "constructor"
    },
    {
      "anonymous": false,
      "inputs": [
        {
          "indexed": true,
          "internalType": "bytes32",
          "name": "role",
          "type": "bytes32"
        },
        {
          "indexed": true,
          "internalType": "bytes32",
          "name": "previousAdminRole",
          "type": "bytes32"
        },
        {
          "indexed": true,
          "internalType": "bytes32",
          "name": "newAdminRole",
          "type": "bytes32"
        }
      ],
      "name": "RoleAdminChanged",
      "type": "event"
    },
    {
      "anonymous": false,
      "inputs": [
        {
          "indexed": true,
          "internalType": "bytes32",
          "name": "role",
          "type": "bytes32"
        },
        {
          "indexed": true,
          "internalType": "address",
          "name": "account",
          "type": "address"
        },
        {
          "indexed": true,
          "internalType": "address",
          "name": "sender",
          "type": "address"
        }
      ],
      "name": "RoleGranted",
      "type": "event"
    },
    {
      "anonymous": false,
      "inputs": [
        {
          "indexed": true,
          "internalType": "bytes32",
          "name": "role",
          "type": "bytes32"
        },
        {
          "indexed": true,
          "internalType": "address",
          "name": "account",
          "type": "address"
        },
        {
          "indexed": true,
          "internalType": "address",
          "name": "sender",
          "type": "address"
        }
      ],
      "name": "RoleRevoked",
      "type": "event"
    },
    {
      "inputs": [],
      "name": "DEFAULT_ADMIN_ROLE",
      "outputs": [
        {
          "internalType": "bytes32",
          "name": "",
          "type": "bytes32"
        }
      ],
      "stateMutability": "view",
      "type": "function"
    },
    {
      "inputs": [],
      "name": "FACTORY_MANAGER",
      "outputs": [
        {
          "internalType": "bytes32",
          "name": "",
          "type": "bytes32"
        }
      ],
      "stateMutability": "view",
      "type": "function"
    },
    {
      "inputs": [
        {
          "internalType": "address",
          "name": "lockInstance",
          "type": "address"
        },
        {
          "internalType": "bytes",
          "name": "lockAndInitialBeneficiariesData",
          "type": "bytes"
        },
        {
          "internalType": "address",
          "name": "depositManagerInstance",
          "type": "address"
        },
        {
          "internalType": "bytes",
          "name": "depositManagerData",
          "type": "bytes"
        },
        {
          "internalType": "address",
          "name": "scheduleManagerInstance",
          "type": "address"
        },
        {
          "internalType": "bytes",
          "name": "scheduleManagerData",
          "type": "bytes"
        },
        {
          "internalType": "address",
          "name": "splitManagerInstance",
          "type": "address"
        },
        {
          "internalType": "bytes",
          "name": "splitManagerData",
          "type": "bytes"
        }
      ],
      "name": "deployLock",
      "outputs": [],
      "stateMutability": "nonpayable",
      "type": "function"
    },
    {
      "inputs": [
        {
          "internalType": "bytes32",
          "name": "role",
          "type": "bytes32"
        }
      ],
      "name": "getRoleAdmin",
      "outputs": [
        {
          "internalType": "bytes32",
          "name": "",
          "type": "bytes32"
        }
      ],
      "stateMutability": "view",
      "type": "function"
    },
    {
      "inputs": [
        {
          "internalType": "bytes32",
          "name": "role",
          "type": "bytes32"
        },
        {
          "internalType": "address",
          "name": "account",
          "type": "address"
        }
      ],
      "name": "grantRole",
      "outputs": [],
      "stateMutability": "nonpayable",
      "type": "function"
    },
    {
      "inputs": [
        {
          "internalType": "bytes32",
          "name": "role",
          "type": "bytes32"
        },
        {
          "internalType": "address",
          "name": "account",
          "type": "address"
        }
      ],
      "name": "hasRole",
      "outputs": [
        {
          "internalType": "bool",
          "name": "",
          "type": "bool"
        }
      ],
      "stateMutability": "view",
      "type": "function"
    },
    {
      "inputs": [
        {
          "internalType": "bytes32",
          "name": "role",
          "type": "bytes32"
        },
        {
          "internalType": "address",
          "name": "account",
          "type": "address"
        }
      ],
      "name": "renounceRole",
      "outputs": [],
      "stateMutability": "nonpayable",
      "type": "function"
    },
    {
      "inputs": [
        {
          "internalType": "bytes32",
          "name": "role",
          "type": "bytes32"
        },
        {
          "internalType": "address",
          "name": "account",
          "type": "address"
        }
      ],
      "name": "revokeRole",
      "outputs": [],
      "stateMutability": "nonpayable",
      "type": "function"
    },
    {
      "inputs": [
        {
          "internalType": "bytes4",
          "name": "interfaceId",
          "type": "bytes4"
        }
      ],
      "name": "supportsInterface",
      "outputs": [
        {
          "internalType": "bool",
          "name": "",
          "type": "bool"
        }
      ],
      "stateMutability": "view",
      "type": "function"
    }
  ],
  "bytecode": "0x608060405234801561001057600080fd5b5061003b7fc11a64747fcf938d285e6a0adf0a15126148ec21a274c20c2048f6c55f7ad5d133610040565b6100ec565b61004a828261004e565b5050565b6000828152602081815260408083206001600160a01b038516845290915290205460ff1661004a576000828152602081815260408083206001600160a01b03851684529091529020805460ff191660011790556100a83390565b6001600160a01b0316816001600160a01b0316837f2f8788117e7eff1d82e926ec794901d17c78024a50270940304540a733656f0d60405160405180910390a45050565b61215a80620000fc6000396000f3fe60806040523480156200001157600080fd5b50600436106200009f5760003560e01c806336568abe116200006e57806336568abe146200013557806342246a57146200014c57806391d148541462000174578063a217fddf146200018b578063d547741f146200019457600080fd5b806301ffc9a714620000a45780630f20520d14620000d0578063248a9ca314620000e95780632f2ff15d146200011e575b600080fd5b620000bb620000b5366004620016cd565b620001ab565b60405190151581526020015b60405180910390f35b620000e7620000e13660046200152a565b620001e3565b005b6200010f620000fa36600462001680565b60009081526020819052604090206001015490565b604051908152602001620000c7565b620000e76200012f3660046200169a565b620008f4565b620000e7620001463660046200169a565b62000923565b6200010f7fc11a64747fcf938d285e6a0adf0a15126148ec21a274c20c2048f6c55f7ad5d181565b620000bb620001853660046200169a565b620009a9565b6200010f600081565b620000e7620001a53660046200169a565b620009d2565b60006001600160e01b03198216637965db0b60e01b1480620001dd57506301ffc9a760e01b6001600160e01b03198316145b92915050565b60008c604051620001f4906200135b565b6001600160a01b039091168152604060208201819052600090820152606001604051809103906000f08015801562000230573d6000803e3d6000fd5b5090506000620002e4828c8c8c8080601f01602080910402602001604051908101604052809392919081815260200183838082843760009201919091525050604080516020601f8f018190048102820181019092528d81528f935091508d908d908190840183828082843760009201919091525050604080516020601f8e018190048102820181019092528c81528e935091508c908c9081908401838280828437600092019190915250620009fc92505050565b90506200032982828f8f8080601f01602080910402602001604051908101604052809392919081815260200183838082843760009201919091525062000b1d92505050565b6001600160a01b038216632f2ff15d60008051602062002105833981519152336040516001600160e01b031960e085901b16815260048101929092526001600160a01b03166024820152604401600060405180830381600087803b1580156200039157600080fd5b505af1158015620003a6573d6000803e3d6000fd5b505082516001600160a01b03169150632f2ff15d905060008051602062002105833981519152336040516001600160e01b031960e085901b16815260048101929092526001600160a01b03166024820152604401600060405180830381600087803b1580156200041557600080fd5b505af11580156200042a573d6000803e3d6000fd5b5050505080602001516001600160a01b0316632f2ff15d60008051602062002105833981519152620004593390565b6040516001600160e01b031960e085901b16815260048101929092526001600160a01b03166024820152604401600060405180830381600087803b158015620004a157600080fd5b505af1158015620004b6573d6000803e3d6000fd5b5050505080604001516001600160a01b0316632f2ff15d60008051602062002105833981519152620004e53390565b6040516001600160e01b031960e085901b16815260048101929092526001600160a01b03166024820152604401600060405180830381600087803b1580156200052d57600080fd5b505af115801562000542573d6000803e3d6000fd5b5050604051631b2b455f60e11b81526000805160206200210583398151915260048201523060248201526001600160a01b03851692506336568abe9150604401600060405180830381600087803b1580156200059d57600080fd5b505af1158015620005b2573d6000803e3d6000fd5b50508251604051632f2ff15d60e01b81526000805160206200210583398151915260048201523060248201526001600160a01b039091169250632f2ff15d9150604401600060405180830381600087803b1580156200061057600080fd5b505af115801562000625573d6000803e3d6000fd5b5050506020820151604051632f2ff15d60e01b81526000805160206200210583398151915260048201523060248201526001600160a01b039091169150632f2ff15d90604401600060405180830381600087803b1580156200068657600080fd5b505af11580156200069b573d6000803e3d6000fd5b5050506040808301519051632f2ff15d60e01b81526000805160206200210583398151915260048201523060248201526001600160a01b039091169150632f2ff15d90604401600060405180830381600087803b158015620006fc57600080fd5b505af115801562000711573d6000803e3d6000fd5b5050604051631b2b455f60e11b81526000805160206200210583398151915260048201523060248201526001600160a01b03851692506336568abe9150604401600060405180830381600087803b1580156200076c57600080fd5b505af115801562000781573d6000803e3d6000fd5b50508251604051632f2ff15d60e01b81526000805160206200210583398151915260048201523060248201526001600160a01b039091169250632f2ff15d9150604401600060405180830381600087803b158015620007df57600080fd5b505af1158015620007f4573d6000803e3d6000fd5b5050506020820151604051632f2ff15d60e01b81526000805160206200210583398151915260048201523060248201526001600160a01b039091169150632f2ff15d90604401600060405180830381600087803b1580156200085557600080fd5b505af11580156200086a573d6000803e3d6000fd5b5050506040808301519051632f2ff15d60e01b81526000805160206200210583398151915260048201523060248201526001600160a01b039091169150632f2ff15d90604401600060405180830381600087803b158015620008cb57600080fd5b505af1158015620008e0573d6000803e3d6000fd5b505050505050505050505050505050505050565b60008281526020819052604090206001015462000912813362000b9a565b6200091e838362000c09565b505050565b6001600160a01b0381163314620009995760405162461bcd60e51b815260206004820152602f60248201527f416363657373436f6e74726f6c3a2063616e206f6e6c792072656e6f756e636560448201526e103937b632b9903337b91039b2b63360891b60648201526084015b60405180910390fd5b620009a5828262000c91565b5050565b6000918252602082815260408084206001600160a01b0393909316845291905290205460ff1690565b600082815260208190526040902060010154620009f0813362000b9a565b6200091e838362000c91565b60408051606081018252600080825260208201819052918101919091528662000a26898862000cf9565b60405162000a34906200135b565b62000a4192919062001829565b604051809103906000f08015801562000a5e573d6000803e3d6000fd5b506001600160a01b031681528462000a77898662000cf9565b60405162000a85906200135b565b62000a9292919062001829565b604051809103906000f08015801562000aaf573d6000803e3d6000fd5b506001600160a01b031660208201528262000acb898462000cf9565b60405162000ad9906200135b565b62000ae692919062001829565b604051809103906000f08015801562000b03573d6000803e3d6000fd5b506001600160a01b03166040820152979650505050505050565b6000808280602001905181019062000b369190620016f9565b9150915062000b9262000b4c8686858562000d42565b60408051808201909152601a81527f4c6f636b20696e697469616c697a6174696f6e206661696c656400000000000060208201526001600160a01b038816919062000e3e565b505050505050565b62000ba68282620009a9565b620009a55762000bc1816001600160a01b0316601462000e59565b62000bce83602062000e59565b60405160200162000be1929190620017b0565b60408051601f198184030181529082905262461bcd60e51b8252620009909160040162001881565b62000c158282620009a9565b620009a5576000828152602081815260408083206001600160a01b03851684529091529020805460ff1916600117905562000c4d3390565b6001600160a01b0316816001600160a01b0316837f2f8788117e7eff1d82e926ec794901d17c78024a50270940304540a733656f0d60405160405180910390a45050565b62000c9d8282620009a9565b15620009a5576000828152602081815260408083206001600160a01b0385168085529252808320805460ff1916905551339285917ff6391f5c32d9c69d2a47ea670b442974b53935d1edc7fd64eb21e047a839171b9190a45050565b6060828260405160240162000d1092919062001829565b60408051601f198184030181529190526020810180516001600160e01b031663347d5e2560e21b179052905092915050565b60606000806000806000808880602001905181019062000d6391906200146a565b98509850985098509850985050505062000d7f868c8362001013565b60208a8101518b516040808e015181516001600160a01b039485169581019590955291831690840152811660608301528088166080830152861660a082015284151560c082015283151560e082015282151561010082015261012081018290526101400160408051601f198184030181529082905262000e04918a906024016200184f565b60408051601f198184030181529190526020810180516001600160e01b031663495e526360e11b1790529650505050505050949350505050565b606062000e4f8484600085620010b6565b90505b9392505050565b6060600062000e6a836002620018b1565b62000e7790600262001896565b67ffffffffffffffff81111562000e925762000e9262001948565b6040519080825280601f01601f19166020018201604052801562000ebd576020820181803683370190505b509050600360fc1b8160008151811062000edb5762000edb62001932565b60200101906001600160f81b031916908160001a905350600f60fb1b8160018151811062000f0d5762000f0d62001932565b60200101906001600160f81b031916908160001a905350600062000f33846002620018b1565b62000f4090600162001896565b90505b600181111562000fc2576f181899199a1a9b1b9c1cb0b131b232b360811b85600f166010811062000f785762000f7862001932565b1a60f81b82828151811062000f915762000f9162001932565b60200101906001600160f81b031916908160001a90535060049490941c9362000fba8162001902565b905062000f43565b50831562000e525760405162461bcd60e51b815260206004820181905260248201527f537472696e67733a20686578206c656e67746820696e73756666696369656e74604482015260640162000990565b6200102a6001600160a01b038416333084620011e8565b60405163095ea7b360e01b81526001600160a01b0383811660048301526024820183905284169063095ea7b390604401602060405180830381600087803b1580156200107557600080fd5b505af11580156200108a573d6000803e3d6000fd5b505050506040513d601f19601f82011682018060405250810190620010b0919062001662565b50505050565b606082471015620011195760405162461bcd60e51b815260206004820152602660248201527f416464726573733a20696e73756666696369656e742062616c616e636520666f6044820152651c8818d85b1b60d21b606482015260840162000990565b843b620011695760405162461bcd60e51b815260206004820152601d60248201527f416464726573733a2063616c6c20746f206e6f6e2d636f6e7472616374000000604482015260640162000990565b600080866001600160a01b0316858760405162001187919062001792565b60006040518083038185875af1925050503d8060008114620011c6576040519150601f19603f3d011682016040523d82523d6000602084013e620011cb565b606091505b5091509150620011dd82828662001244565b979650505050505050565b604080516001600160a01b0385811660248301528416604482015260648082018490528251808303909101815260849091019091526020810180516001600160e01b03166323b872dd60e01b179052620010b090859062001282565b606083156200125557508162000e52565b825115620012665782518084602001fd5b8160405162461bcd60e51b815260040162000990919062001881565b6000620012d9826040518060400160405280602081526020017f5361666545524332303a206c6f772d6c6576656c2063616c6c206661696c6564815250856001600160a01b031662000e3e9092919063ffffffff16565b8051909150156200091e5780806020019051810190620012fa919062001662565b6200091e5760405162461bcd60e51b815260206004820152602a60248201527f5361666545524332303a204552433230206f7065726174696f6e20646964206e6044820152691bdd081cdd58d8d9595960b21b606482015260840162000990565b61078d806200197883390190565b803562001376816200195e565b919050565b805180151581146200137657600080fd5b60008083601f8401126200139f57600080fd5b50813567ffffffffffffffff811115620013b857600080fd5b602083019150836020828501011115620013d157600080fd5b9250929050565b600082601f830112620013ea57600080fd5b815167ffffffffffffffff8082111562001408576200140862001948565b604051601f8301601f19908116603f0116810190828211818310171562001433576200143362001948565b816040528381528660208588010111156200144d57600080fd5b62001460846020830160208901620018d3565b9695505050505050565b60008060008060008060008060006101208a8c0312156200148a57600080fd5b895162001497816200195e565b60208b0151909950620014aa816200195e565b60408b0151909850620014bd816200195e565b60608b0151909750620014d0816200195e565b60808b0151909650620014e3816200195e565b9450620014f360a08b016200137b565b93506200150360c08b016200137b565b92506200151360e08b016200137b565b91506101008a015190509295985092959850929598565b6000806000806000806000806000806000806101008d8f0312156200154e57600080fd5b620015598d62001369565b9b5067ffffffffffffffff60208e013511156200157557600080fd5b620015878e60208f01358f016200138c565b909b5099506200159a60408e0162001369565b985067ffffffffffffffff60608e01351115620015b657600080fd5b620015c88e60608f01358f016200138c565b9098509650620015db60808e0162001369565b955067ffffffffffffffff60a08e01351115620015f757600080fd5b620016098e60a08f01358f016200138c565b90955093506200161c60c08e0162001369565b925067ffffffffffffffff60e08e013511156200163857600080fd5b6200164a8e60e08f01358f016200138c565b81935080925050509295989b509295989b509295989b565b6000602082840312156200167557600080fd5b62000e52826200137b565b6000602082840312156200169357600080fd5b5035919050565b60008060408385031215620016ae57600080fd5b823591506020830135620016c2816200195e565b809150509250929050565b600060208284031215620016e057600080fd5b81356001600160e01b03198116811462000e5257600080fd5b600080604083850312156200170d57600080fd5b825167ffffffffffffffff808211156200172657600080fd5b6200173486838701620013d8565b935060208501519150808211156200174b57600080fd5b506200175a85828601620013d8565b9150509250929050565b600081518084526200177e816020860160208601620018d3565b601f01601f19169290920160200192915050565b60008251620017a6818460208701620018d3565b9190910192915050565b7f416363657373436f6e74726f6c3a206163636f756e7420000000000000000000815260008351620017ea816017850160208801620018d3565b7001034b99036b4b9b9b4b733903937b6329607d1b60179184019182015283516200181d816028840160208801620018d3565b01602801949350505050565b6001600160a01b038316815260406020820181905260009062000e4f9083018462001764565b60408152600062001864604083018562001764565b828103602084015262001878818562001764565b95945050505050565b60208152600062000e52602083018462001764565b60008219821115620018ac57620018ac6200191c565b500190565b6000816000190483118215151615620018ce57620018ce6200191c565b500290565b60005b83811015620018f0578181015183820152602001620018d6565b83811115620010b05750506000910152565b6000816200191457620019146200191c565b506000190190565b634e487b7160e01b600052601160045260246000fd5b634e487b7160e01b600052603260045260246000fd5b634e487b7160e01b600052604160045260246000fd5b6001600160a01b03811681146200197457600080fd5b5056fe608060405260405161078d38038061078d833981016040819052610022916102f5565b61004d60017f360894a13ba1a3210667c828492db98dca3e2076cc3735a920a3ca505d382bbd610412565b6000805160206107468339815191521461006957610069610463565b6100758282600061007c565b505061048f565b610085836100b2565b6000825111806100925750805b156100ad576100ab83836100f260201b6100291760201c565b505b505050565b6100bb8161011e565b6040516001600160a01b038216907fbc7cd75a20ee27fd9adebab32041f755214dbc6bffa90cc0225b39da2e5c2d3b90600090a250565b60606101178383604051806060016040528060278152602001610766602791396101de565b9392505050565b610131816102b360201b6100551760201c565b6101985760405162461bcd60e51b815260206004820152602d60248201527f455243313936373a206e657720696d706c656d656e746174696f6e206973206e60448201526c1bdd08184818dbdb9d1c9858dd609a1b60648201526084015b60405180910390fd5b806101bd60008051602061074683398151915260001b6102b960201b61005b1760201c565b80546001600160a01b0319166001600160a01b039290921691909117905550565b6060833b61023d5760405162461bcd60e51b815260206004820152602660248201527f416464726573733a2064656c65676174652063616c6c20746f206e6f6e2d636f6044820152651b9d1c9858dd60d21b606482015260840161018f565b600080856001600160a01b03168560405161025891906103c3565b600060405180830381855af49150503d8060008114610293576040519150601f19603f3d011682016040523d82523d6000602084013e610298565b606091505b5090925090506102a98282866102bc565b9695505050505050565b3b151590565b90565b606083156102cb575081610117565b8251156102db5782518084602001fd5b8160405162461bcd60e51b815260040161018f91906103df565b6000806040838503121561030857600080fd5b82516001600160a01b038116811461031f57600080fd5b60208401519092506001600160401b038082111561033c57600080fd5b818501915085601f83011261035057600080fd5b81518181111561036257610362610479565b604051601f8201601f19908116603f0116810190838211818310171561038a5761038a610479565b816040528281528860208487010111156103a357600080fd5b6103b4836020830160208801610437565b80955050505050509250929050565b600082516103d5818460208701610437565b9190910192915050565b60208152600082518060208401526103fe816040850160208701610437565b601f01601f19169190910160400192915050565b60008282101561043257634e487b7160e01b600052601160045260246000fd5b500390565b60005b8381101561045257818101518382015260200161043a565b838111156100ab5750506000910152565b634e487b7160e01b600052600160045260246000fd5b634e487b7160e01b600052604160045260246000fd5b6102a88061049e6000396000f3fe60806040523661001357610011610017565b005b6100115b61002761002261005e565b610096565b565b606061004e838360405180606001604052806027815260200161024c602791396100ba565b9392505050565b3b151590565b90565b60006100917f360894a13ba1a3210667c828492db98dca3e2076cc3735a920a3ca505d382bbc546001600160a01b031690565b905090565b3660008037600080366000845af43d6000803e8080156100b5573d6000f35b3d6000fd5b6060833b61011e5760405162461bcd60e51b815260206004820152602660248201527f416464726573733a2064656c65676174652063616c6c20746f206e6f6e2d636f6044820152651b9d1c9858dd60d21b60648201526084015b60405180910390fd5b600080856001600160a01b03168560405161013991906101cc565b600060405180830381855af49150503d8060008114610174576040519150601f19603f3d011682016040523d82523d6000602084013e610179565b606091505b5091509150610189828286610193565b9695505050505050565b606083156101a257508161004e565b8251156101b25782518084602001fd5b8160405162461bcd60e51b815260040161011591906101e8565b600082516101de81846020870161021b565b9190910192915050565b602081526000825180602084015261020781604085016020870161021b565b601f01601f19169190910160400192915050565b60005b8381101561023657818101518382015260200161021e565b83811115610245576000848401525b5050505056fe416464726573733a206c6f772d6c6576656c2064656c65676174652063616c6c206661696c6564a2646970667358221220ecd472734fb410925b9a1759d6357fc2988e40fcd1a996501af626b1231a9eaa64736f6c63430008060033360894a13ba1a3210667c828492db98dca3e2076cc3735a920a3ca505d382bbc416464726573733a206c6f772d6c6576656c2064656c65676174652063616c6c206661696c656471840dc4906352362b0cdaf79870196c8e42acafade72d5d5a6d59291253ceb1a26469706673582212207f89ed47c0c0449882f42d2e92939148a0ee41de20ffc78ef1b5bbbb2fb5f95d64736f6c63430008060033",
  "linkReferences": {},
  "deployedLinkReferences": {}
}